:100000000C94B4000C94D1000C94D1000C94D10049
:100010000C9473010C94A5010C94D1000C94E9008C
:100020000C942E010C94D1000C94D1000C94D100AE
:100030000C94D1000C94D1000C94D1000C94D100FC
:100040000C94D3000C94D1000C949B020C94C70226
:100050000C94D1000C94D1000C94D1000C94D100DC
:100060000C94D1000C94D100808386898C8F92955A
:10007000989C9FA2A5A8ABAEB0B3B6B9BCBFC1C493
:10008000C7C9CCCED1D3D5D8DADCDEE0E2E4E6E8ED
:10009000EAEBEDEFF0F2F3F4F6F7F8F9FAFBFBFC1C
:1000A000FDFDFEFEFEFFFFFFFFFFFFFFFEFEFDFD6D
:1000B000FCFCFBFAF9F8F7F6F5F4F2F1EFEEECEBF5
:1000C000E9E7E5E3E1DFDDDBD9D7D4D2CFCDCAC89C
:1000D000C5C3C0BDBAB8B5B2AFACA9A6A3A09D9A1E
:1000E0009794918E8A8784817E7B7875716E6B6818
:1000F00065625F5C595653504D4A4745423F3C3A12
:10010000373532302D2B28262422201E1C1A181693
:10011000141311100E0D0B0A09080706050403033A
:1001200002020101000000000000000101010202C2
:1001300003040405060708090B0C0D0F1012141513
:1001400017191B1D1F212325272A2C2E3133363842
:100150003B3E404346494C4F5154575A5D6063679C
:100160006A6D707376797C0011241FBECFEFD8E0E2
:10017000DEBFCDBF11E0A0E0B1E0EAE5F8E002C0EB
:1001800005900D92A230B107D9F711E0A2E0B1E0DD
:1001900001C01D92A037B107E1F70E9487030C94BC
:1001A0002B040C9400001F920F920FB60F92112493
:1001B0008F93F89483B78E7F83BF5E9A5F9878940D
:1001C00083B7816083BF8F910F900FBE0F901F90F8
:1001D00018951F920F920FB60F9211242F933F93F1
:1001E0004F938F939F93EF93FF93F89483B78E7FF2
:1001F00083BF5E988091040190910501FC01002469
:10020000EE0FFF1F001CEE0FFF1F001CEF2FF02D45
:10021000E859FF4FE491E093B3009C012A543F4F0B
:1002200030930501209304014FE3203C340730F064
:100230008A509F439093050180930401789483B77B
:10024000816083BFFF91EF919F918F914F913F917B
:100250002F910F900FBE0F901F9018951F920F9225
:100260000FB60F9211242F933F934F938F939F9329
:10027000EF93FF93F89483B78E7F83BF5F9A80914B
:10028000020190910301FC010024EE0FFF1F001CEE
:10029000EE0FFF1F001CEF2FF02DE859FF4FE491E8
:1002A000E093B4009C012B513F4F30930301209306
:1002B00002014FE3203C340730F08B5D9E43909366
:1002C000030180930201789483B7816083BFFF911B
:1002D000EF919F918F914F913F912F910F900FBE72
:1002E0000F901F9018951F920F920FB60F92112426
:1002F0008F939F93AF93BF93F89483B78E7F83BF01
:100300008FE798E3A1E081509040A040E1F700C062
:100310000000309915C085B58E7F85BD10925901BA
:10032000109258014598789483B7816083BFBF913C
:10033000AF919F918F910F900FBE0F901F901895C6
:10034000459A85B5816085BDEECF1F920F920FB69D
:100350000F9211240F931F932F933F934F938F93DB
:100360009F93EF93FF93F8944C9974C04C9B58C0A3
:100370004B9B32C080915601909157010197909309
:100380005701809356012091580130915901243131
:100390003105DCF118161906DCF440E045980FEF42
:1003A00011EE24E0015010402040E1F700C00000B1
:1003B000459A0FEF11EE24E0015010402040E1F784
:1003C00000C000004F5F242F30E02817390734F3B6
:1003D000109257011092560180916D00877E809394
:1003E0006D00789480916D00886180936D00FF911D
:1003F000EF919F918F914F913F912F911F910F916D
:100400000F900FBE0F901F901895F901E55AFE4FFF
:1004100080832F5F3F4F3093590120935801BACF0B
:100420008FE39CE90197F1F700C0000085B58E7F4E
:1004300085BD80915301813009F09ACF109253010C
:1004400080915601909157010196909357018093A6
:1004500056018ECF81E0809353018FE39CE9019791
:10046000F1F700C0000082CF8CE284B980E185B949
:1004700024988EE387B981E088B9389884EC8AB9EA
:1004800088E18BB98AB1877E8AB980E091EE0E94BB
:10049000F102F8941092B60083E08093B00087E0F8
:1004A000809370001092B3001092B400E8E6F0E080
:1004B000808187608083ECE6F0E0808181608083CA
:1004C000EDE6F0E080818861808308950F931F93AB
:1004D000CF93DF93CDB7DEB7C050D1400FB6F894BD
:1004E000DEBF0FBECDBF60E071E00E94F803BC012B
:1004F000FC018081882399F08E010F5F1F4FC80196
:100500000E94FD0380E090E060E071E00E94F8034B
:10051000BC01005E1F4FFC018081882381F7C05021
:10052000DF4F0FB6F894DEBF0FBECDBFDF91CF9186
:100530001F910F9108951F920F920FB60F921124E1
:100540002F938F939F93EF93FF932091C0009091EF
:10055000C600E0910E01EF5FEF7180910D01E81789
:10056000A1F0822F8871E0930E01F0E0EF5EFE4F64
:10057000908380930C01FF91EF919F918F912F9128
:100580000F900FBE0F901F90189582E0F2CF1F9230
:100590000F920FB60F9211248F939F93EF93FF93B7
:1005A0009091100180910F019817A9F0E0910F012F
:1005B000EF5FEF71E0930F01F0E0EF5CFE4F8081A1
:1005C0008093C600FF91EF919F918F910F900FBE86
:1005D0000F901F9018958091C1008F7D8093C1006E
:1005E000F1CF1092100110920F0110920E01109293
:1005F0000D0197FF04C022E02093C0009F779093E5
:10060000C5008093C40088E98093C10086E0809390
:10061000C200089590910E0180910D01981789F004
:10062000E0910D01EF5FEF71E0930D01F0E0EF5EFF
:10063000FE4F208130910C01932F80E0820F911D9D
:10064000089580E091E00895209110012F5F2F71AF
:1006500090910F012917E1F3E22FF0E0EF5CFE4FDC
:100660008083209310018091C10080628093C1003B
:100670000895DC012C912223C1F011969091100174
:100680009F5F9F7180910F019817E1F3E92FF0E0D0
:10069000EF5CFE4F2083909310018091C100806237
:1006A0008093C1002D91222349F70895FC014491C4
:1006B0004423D1F00196309110013F5F3F712091AA
:1006C0000F013217E1F3A32FB0E0AF5CBE4F4C93A4
:1006D000309310012091C10020622093C100FC01E1
:1006E00001964491442339F7089580910E01209199
:1006F0000D0190E04F96821B91096FE170E00E941E
:10070000D103089580910D0180930E010895CF9338
:10071000DF93CDB7DEB7C058D0400FB6F894DEBF38
:100720000FBECDBF0E94340283B7816083BF83B701
:10073000817F83BF789410920B0110920A0101C04F
:1007400088950E940A039923D1F420910A013091DF
:100750000B01203831059CF48D3091F320910A0172
:1007600030910B01E1E0F0E0EC0FFD1FE20FF31F11
:1007700080832F5F3F4F30930B0120930A018A3013
:10078000F9F6E0910A01F0910B01EC0FFD1F1082C8
:1007900010920B0110920A01CE0101960E9466028E
:1007A000CFCF97FB092E07260AD077FD04D00CD0B7
:1007B00006D000201AF4709561957F4F0895F6F7E2
:1007C000909581959F4F0895AA1BBB1B51E107C0CF
:1007D000AA1FBB1FA617B70710F0A61BB70B881FD1
:1007E000991F5A95A9F780959095BC01CD01089560
:1007F00041E551E00E9404040895FB01DC010190F1
:100800000D920020E1F70895FA01A191B0810097BF
:1008100019F41097E1F0CD01DC01CD010D9000201D
:1008200011F4C00113C0FB012191222319F02015FE
:10083000D9F7F3CFFB012191201519F41E921196DF
:1008400006C02223C1F70D900020A1F7D001FA01C4
:0A085000A193B0830895F894FFCF40
:02085A0020007C
:00000001FF
